{
  "contractName": "Splitter",
  "abi": [
    {
      "constant": true,
      "inputs": [
        {
          "name": "",
          "type": "address"
        },
        {
          "name": "",
          "type": "uint256"
        }
      ],
      "name": "splits",
      "outputs": [
        {
          "name": "",
          "type": "address"
        }
      ],
      "payable": false,
      "stateMutability": "view",
      "type": "function"
    },
    {
      "constant": true,
      "inputs": [
        {
          "name": "",
          "type": "address"
        }
      ],
      "name": "availableBalances",
      "outputs": [
        {
          "name": "",
          "type": "uint256"
        }
      ],
      "payable": false,
      "stateMutability": "view",
      "type": "function"
    },
    {
      "payable": true,
      "stateMutability": "payable",
      "type": "fallback"
    },
    {
      "anonymous": false,
      "inputs": [
        {
          "indexed": true,
          "name": "from",
          "type": "address"
        },
        {
          "indexed": true,
          "name": "recipient1",
          "type": "address"
        },
        {
          "indexed": true,
          "name": "recipient2",
          "type": "address"
        }
      ],
      "name": "SplitCreated",
      "type": "event"
    },
    {
      "anonymous": false,
      "inputs": [
        {
          "indexed": true,
          "name": "from",
          "type": "address"
        },
        {
          "indexed": true,
          "name": "recipient1",
          "type": "address"
        },
        {
          "indexed": true,
          "name": "recipient2",
          "type": "address"
        },
        {
          "indexed": false,
          "name": "value",
          "type": "uint256"
        }
      ],
      "name": "Deposit",
      "type": "event"
    },
    {
      "anonymous": false,
      "inputs": [
        {
          "indexed": true,
          "name": "who",
          "type": "address"
        },
        {
          "indexed": false,
          "name": "value",
          "type": "uint256"
        }
      ],
      "name": "Withdrawal",
      "type": "event"
    },
    {
      "constant": false,
      "inputs": [
        {
          "name": "_address1",
          "type": "address"
        },
        {
          "name": "_address2",
          "type": "address"
        }
      ],
      "name": "setSplit",
      "outputs": [],
      "payable": false,
      "stateMutability": "nonpayable",
      "type": "function"
    },
    {
      "constant": false,
      "inputs": [],
      "name": "withdraw",
      "outputs": [],
      "payable": false,
      "stateMutability": "nonpayable",
      "type": "function"
    }
  ],
  "bytecode": "0x608060405234801561001057600080fd5b50610887806100206000396000f300608060405260043610610062576000357c0100000000000000000000000000000000000000000000000000000000900463ffffffff1680633ccfd60b1461036f5780636ccf173914610386578063b85a2ce114610413578063dc3774b314610476575b61006a610779565b6000806000803373ffffffffffffffffffffffffffffffffffffffff1673ffffffffffffffffffffffffffffffffffffffff168152602001908152602001600020600280602002604051908101604052809291908260028015610118576020028201915b8160009054906101000a900473ffffffffffffffffffffffffffffffffffffffff1673ffffffffffffffffffffffffffffffffffffffff16815260200190600101908083116100ce575b50505050509250600083600060028110151561013057fe5b602002015173ffffffffffffffffffffffffffffffffffffffff161415151561015857600080fd5b600083600160028110151561016957fe5b602002015173ffffffffffffffffffffffffffffffffffffffff161415151561019157600080fd5b60023481151561019d57fe5b06915060008211156101f75781600160003373ffffffffffffffffffffffffffffffffffffffff1673ffffffffffffffffffffffffffffffffffffffff168152602001908152602001600020600082825401925050819055505b600282340381151561020557fe5b04905082600160028110151561021757fe5b602002015173ffffffffffffffffffffffffffffffffffffffff1683600060028110151561024157fe5b602002015173ffffffffffffffffffffffffffffffffffffffff163373ffffffffffffffffffffffffffffffffffffffff167f7cfff908a4b583f36430b25d75964c458d8ede8a99bd61be750e97ee1b2f3a96346040518082815260200191505060405180910390a480600160008560006002811015156102be57fe5b602002015173ffffffffffffffffffffffffffffffffffffffff1673ffffffffffffffffffffffffffffffffffffffff16815260200190815260200160002060008282540192505081905550806001600085600160028110151561031e57fe5b602002015173ffffffffffffffffffffffffffffffffffffffff1673ffffffffffffffffffffffffffffffffffffffff16815260200190815260200160002060008282540192505081905550505050005b34801561037b57600080fd5b506103846104cd565b005b34801561039257600080fd5b506103d1600480360381019080803573ffffffffffffffffffffffffffffffffffffffff169060200190929190803590602001909291905050506105ee565b604051808273ffffffffffffffffffffffffffffffffffffffff1673ffffffffffffffffffffffffffffffffffffffff16815260200191505060405180910390f35b34801561041f57600080fd5b50610474600480360381019080803573ffffffffffffffffffffffffffffffffffffffff169060200190929190803573ffffffffffffffffffffffffffffffffffffffff169060200190929190505050610632565b005b34801561048257600080fd5b506104b7600480360381019080803573ffffffffffffffffffffffffffffffffffffffff169060200190929190505050610761565b6040518082815260200191505060405180910390f35b6000600160003373ffffffffffffffffffffffffffffffffffffffff1673ffffffffffffffffffffffffffffffffffffffff1681526020019081526020016000205490506000600160003373ffffffffffffffffffffffffffffffffffffffff1673ffffffffffffffffffffffffffffffffffffffff168152602001908152602001600020819055503373ffffffffffffffffffffffffffffffffffffffff167f7fcf532c15f0a6db0bd6d0e038bea71d30d808c7d98cb3bf7268a95bf5081b65826040518082815260200191505060405180910390a23373ffffffffffffffffffffffffffffffffffffffff166108fc829081150290604051600060405180830381858888f193505050501580156105ea573d6000803e3d6000fd5b5050565b60006020528160005260406000208160028110151561060957fe5b016000915091509054906101000a900473ffffffffffffffffffffffffffffffffffffffff1681565b8073ffffffffffffffffffffffffffffffffffffffff168273ffffffffffffffffffffffffffffffffffffffff163373ffffffffffffffffffffffffffffffffffffffff167f623e040a6e6a9d5e8d7190e12edba8a2a75eb288a9f00c3fcdafdf3ff1bbbba360405160405180910390a460408051908101604052808373ffffffffffffffffffffffffffffffffffffffff1673ffffffffffffffffffffffffffffffffffffffff1681526020018273ffffffffffffffffffffffffffffffffffffffff1673ffffffffffffffffffffffffffffffffffffffff168152506000803373ffffffffffffffffffffffffffffffffffffffff1673ffffffffffffffffffffffffffffffffffffffff16815260200190815260200160002090600261075c92919061079b565b505050565b60016020528060005260406000206000915090505481565b6040805190810160405280600290602082028038833980820191505090505090565b8260028101928215610807579160200282015b828111156108065782518260006101000a81548173ffffffffffffffffffffffffffffffffffffffff021916908373ffffffffffffffffffffffffffffffffffffffff160217905550916020019190600101906107ae565b5b5090506108149190610818565b5090565b61085891905b8082111561085457600081816101000a81549073ffffffffffffffffffffffffffffffffffffffff02191690555060010161081e565b5090565b905600a165627a7a723058206b8f2572264d1bfff62df4fbd968d34e42a7530280688b793ff0431b0a5c41850029",
  "source": "pragma solidity ^0.4.23;\n\n/*\nA project contract for B9Lab's Ethereum Developer course\n*/\ncontract Splitter {\n    mapping (address => address[2]) public splits;\n    mapping (address => uint) public availableBalances;\n\n    event SplitCreated(\n        address indexed from,\n        address indexed recipient1,\n        address indexed recipient2\n    );\n\n    event Deposit(\n        address indexed from,\n        address indexed recipient1,\n        address indexed recipient2,\n        uint256 value\n    );\n\n    event Withdrawal(address indexed who, uint value);\n\n    // Set up the recipients of a split from a sender\n    function setSplit(address _address1, address _address2) public {\n        emit SplitCreated(msg.sender, _address1, _address2);\n        splits[msg.sender] = [_address1, _address2];\n    }\n\n    // Alice can send funds to this contract\n    // and it will be split to bob & carol\n    function () public payable {\n        address[2] memory senderSplit = splits[msg.sender];\n        // Prevent user from burning their ether\n        require(senderSplit[0] != 0);\n        require(senderSplit[1] != 0);\n\n        // If amount is not divisible by two\n        // keep remainder for sender\n        uint remainder = msg.value % 2;\n        if (remainder > 0) {\n            availableBalances[msg.sender] += remainder;\n        }\n        uint half = (msg.value - remainder) / 2;\n\n        emit Deposit(msg.sender, senderSplit[0], senderSplit[1], msg.value);\n        availableBalances[senderSplit[0]] += half;\n        availableBalances[senderSplit[1]] += half;\n    }\n\n    function withdraw() public {\n        uint amount = availableBalances[msg.sender];\n        availableBalances[msg.sender] = 0;\n        emit Withdrawal(msg.sender, amount);\n        msg.sender.transfer(amount);\n    }\n}\n",
  "sourcePath": "/Users/aleck/Code/Splitter/contracts/Splitter.sol",
  "compiler": {
    "name": "solc",
    "version": "0.4.24+commit.e67f0147.Emscripten.clang"
  },
  "schemaVersion": "2.0.0",
  "updatedAt": "2018-06-01T15:16:19.817Z"
}